1716064566.095388 IP 192.168.29.114.55544 > 20.189.173.4.443: Flags [S], seq 1144881901, win 64240, options [mss 1460,sackOK,TS val 4029385106 ecr 0,nop,wscale 7], length 0
	0x0000:  0015 5df6 7ba8 0015 5dd5 7462 0800 4500
	0x0010:  003c 13d9 4000 4006 8707 c0a8 1d72 14bd
	0x0020:  ad04 d8f8 01bb 443d 82ed 0000 0000 a002
	0x0030:  faf0 a00a 0000 0204 05b4 0402 080a f02b
	0x0040:  8992 0000 0000 0103 0307
1716064566.127452 IP 192.168.29.114.55544 > 20.189.173.4.443: Flags [.], ack 1324428206, win 502, options [nop,nop,TS val 4029385138 ecr 2766828828], length 0
	0x0000:  0015 5df6 7ba8 0015 5dd5 7462 0800 4500
	0x0010:  0034 13da 4000 4006 870e c0a8 1d72 14bd
	0x0020:  ad04 d8f8 01bb 443d 82ee 4ef1 2bae 8010
	0x0030:  01f6 a002 0000 0101 080a f02b 89b2 a4ea
	0x0040:  751c
1716064566.128143 IP 192.168.29.114.55544 > 20.189.173.4.443: Flags [P.], seq 0:485, ack 1, win 502, options [nop,nop,TS val 4029385139 ecr 2766828828], length 485
	0x0000:  0015 5df6 7ba8 0015 5dd5 7462 0800 4500
	0x0010:  0219 13db 4000 4006 8528 c0a8 1d72 14bd
	0x0020:  ad04 d8f8 01bb 443d 82ee 4ef1 2bae 8018
	0x0030:  01f6 a1e7 0000 0101 080a f02b 89b3 a4ea
	0x0040:  751c 1603 0101 e001 0001 dc03 038f 026a
	0x0050:  88f6 20a0 f385 852d eb76 3123 5e05 2023
	0x0060:  9094 ca96 71b9 26b4 b335 4118 8420 70bc
	0x0070:  2298 1a98 54b4 5c4b 0f93 5474 7dac feaf
	0x0080:  cb00 ef1f 4a8d d9a0 4ab1 0aca c3d7 0076
	0x0090:  1302 1303 1301 c02f c02b c030 c02c 009e
	0x00a0:  c027 0067 c028 006b 00a3 009f cca9 cca8
	0x00b0:  ccaa c0af c0ad c0a3 c09f c05d c061 c057
	0x00c0:  c053 00a2 c0ae c0ac c0a2 c09e c05c c060
	0x00d0:  c056 c052 c024 006a c023 0040 c00a c014
	0x00e0:  0039 0038 c009 c013 0033 0032 009d c0a1
	0x00f0:  c09d c051 009c c0a0 c09c c050 003d 003c
	0x0100:  0035 002f 00ff 0100 011d 0000 0025 0023
	0x0110:  0000 206d 6f62 696c 652e 6576 656e 7473
	0x0120:  2e64 6174 612e 6d69 6372 6f73 6f66 742e
	0x0130:  636f 6d00 0b00 0403 0001 0200 0a00 1600
	0x0140:  1400 1d00 1700 1e00 1900 1801 0001 0101
	0x0150:  0201 0301 0400 2300 0000 1600 0000 1700
	0x0160:  0000 0d00 2a00 2804 0305 0306 0308 0708
	0x0170:  0808 0908 0a08 0b08 0408 0508 0604 0105
	0x0180:  0106 0103 0303 0103 0204 0205 0206 0200
	0x0190:  2b00 0504 0304 0303 002d 0002 0101 0033
	0x01a0:  0026 0024 001d 0020 ea9d db3e ade4 cc5e
	0x01b0:  82ed 24ef d10d 3c4c 4df3 8e13 b4ff b221
	0x01c0:  41a7 badf c981 2d38 0029 005b 0026 0020
	0x01d0:  ae3a 0000 0132 25a0 4feb 2108 323e 59dd
	0x01e0:  fca4 c9d9 2fc0 e111 8483 8c1d 62ad 1b5d
	0x01f0:  9757 e424 0031 3048 7e57 756e 2d04 b177
	0x0200:  00fd 22be aef2 b5cf d1bb d2ec d334 ba53
	0x0210:  1f0f ff5f e3c0 628b 8a2a 530f 81b5 c999
	0x0220:  f03a 2789 fdfb fd
1716064566.225383 IP 192.168.29.114.55544 > 20.189.173.4.443: Flags [.], ack 100, win 502, options [nop,nop,TS val 4029385236 ecr 2766828925], length 0
	0x0000:  0015 5df6 7ba8 0015 5dd5 7462 0800 4500
	0x0010:  0034 13dc 4000 4006 870c c0a8 1d72 14bd
	0x0020:  ad04 d8f8 01bb 443d 84d3 4ef1 2c11 8010
	0x0030:  01f6 a002 0000 0101 080a f02b 8a14 a4ea
	0x0040:  757d
1716064566.226824 IP 192.168.29.114.55544 > 20.189.173.4.443: Flags [P.], seq 485:1041, ack 100, win 502, options [nop,nop,TS val 4029385238 ecr 2766828925], length 556
	0x0000:  0015 5df6 7ba8 0015 5dd5 7462 0800 4500
	0x0010:  0260 13dd 4000 4006 84df c0a8 1d72 14bd
	0x0020:  ad04 d8f8 01bb 443d 84d3 4ef1 2c11 8018
	0x0030:  01f6 a22e 0000 0101 080a f02b 8a16 a4ea
	0x0040:  757d 1403 0300 0101 1603 0302 2101 0002
	0x0050:  1d03 038f 026a 88f6 20a0 f385 852d eb76
	0x0060:  3123 5e05 2023 9094 ca96 71b9 26b4 b335
	0x0070:  4118 8420 70bc 2298 1a98 54b4 5c4b 0f93
	0x0080:  5474 7dac feaf cb00 ef1f 4a8d d9a0 4ab1
	0x0090:  0aca c3d7 0076 1302 1303 1301 c02f c02b
	0x00a0:  c030 c02c 009e c027 0067 c028 006b 00a3
	0x00b0:  009f cca9 cca8 ccaa c0af c0ad c0a3 c09f
	0x00c0:  c05d c061 c057 c053 00a2 c0ae c0ac c0a2
	0x00d0:  c09e c05c c060 c056 c052 c024 006a c023
	0x00e0:  0040 c00a c014 0039 0038 c009 c013 0033
	0x00f0:  0032 009d c0a1 c09d c051 009c c0a0 c09c
	0x0100:  c050 003d 003c 0035 002f 00ff 0100 015e
	0x0110:  0000 0025 0023 0000 206d 6f62 696c 652e
	0x0120:  6576 656e 7473 2e64 6174 612e 6d69 6372
	0x0130:  6f73 6f66 742e 636f 6d00 0b00 0403 0001
	0x0140:  0200 0a00 1600 1400 1d00 1700 1e00 1900
	0x0150:  1801 0001 0101 0201 0301 0400 2300 0000
	0x0160:  1600 0000 1700 0000 0d00 2a00 2804 0305
	0x0170:  0306 0308 0708 0808 0908 0a08 0b08 0408
	0x0180:  0508 0604 0105 0106 0103 0303 0103 0204
	0x0190:  0205 0206 0200 2b00 0504 0304 0303 002d
	0x01a0:  0002 0101 0033 0067 0065 0018 0061 0425
	0x01b0:  1754 4f4e 224e 6b42 1d08 fc91 c63c 9fcf
	0x01c0:  2183 e70a 3c0f 9f45 03de 5c01 e2d7 8caa
	0x01d0:  bbd9 87d3 c535 8ad9 99b6 ac80 e02a a0b6
	0x01e0:  401a 5010 849a 6d96 0539 938a 86ea ebf5
	0x01f0:  0279 fec8 0d27 5bfe aa04 4dc3 6f06 359e
	0x0200:  a4a0 4ad8 bf6b 7f88 a118 181c 1de4 0900
	0x0210:  2900 5b00 2600 20ae 3a00 0001 3225 a04f
	0x0220:  eb21 0832 3e59 ddfc a4c9 d92f c0e1 1184
	0x0230:  838c 1d62 ad1b 5d97 57e4 2400 3130 e734
	0x0240:  81c0 56d9 1638 9093 4cf4 7ec6 957f a9aa
	0x0250:  d0cd 19a7 8ce4 8460 2e9b ba30 51cb 6c48
	0x0260:  0d90 7867 3fe6 611d 1b11 e4c2 1d37
1716064566.330543 IP 192.168.29.114.55544 > 20.189.173.4.443: Flags [.], ack 4632, win 501, options [nop,nop,TS val 4029385342 ecr 2766829028], length 0
	0x0000:  0015 5df6 7ba8 0015 5dd5 7462 0800 4500
	0x0010:  0034 13de 4000 4006 870a c0a8 1d72 14bd
	0x0020:  ad04 d8f8 01bb 443d 86ff 4ef1 3dc5 8010
	0x0030:  01f5 a002 0000 0101 080a f02b 8a7e a4ea
	0x0040:  75e4
1716064566.336904 IP 192.168.29.114.55544 > 20.189.173.4.443: Flags [P.], seq 1041:2384, ack 4632, win 501, options [nop,nop,TS val 4029385348 ecr 2766829028], length 1343
	0x0000:  0015 5df6 7ba8 0015 5dd5 7462 0800 4500
	0x0010:  0573 13df 4000 4006 81ca c0a8 1d72 14bd
	0x0020:  ad04 d8f8 01bb 443d 86ff 4ef1 3dc5 8018
	0x0030:  01f5 a541 0000 0101 080a f02b 8a84 a4ea
	0x0040:  75e4 1703 0300 456f 659a 67e2 95da 002e
	0x0050:  ba60 5c1b 3e37 ad9d cdf9 6411 c8c0 eba2
	0x0060:  49ed cd9d dba3 afc5 22bf 6605 81e1 63da
	0x0070:  1d93 2506 a231 f7af edda c3de 5b83 1966
	0x0080:  7fc3 2b38 4b67 6db0 daec 2934 1703 0304
	0x0090:  f039 c18e f1a5 ac75 be53 2bf3 ba06 2049
	0x00a0:  0c24 0222 e625 74cd d59b 3b72 50fd 7db6
	0x00b0:  02ed 713c e9b2 a90b 4d35 59c3 d251 7d05
	0x00c0:  23cc e465 3c32 6ab6 ea98 054c 88a7 1c7b
	0x00d0:  1a9f 1dab fbc3 b353 99d9 c255 be54 15c5
	0x00e0:  2960 964b 1a63 40c5 ff17 0634 54fd 413b
	0x00f0:  a39d 69d1 03a9 8f7c b564 2d79 f4b2 7877
	0x0100:  7801 b5ba bcd8 5893 31e6 41c5 1b53 1782
	0x0110:  898f c230 b656 79db 24af 7ff9 6553 2ef8
	0x0120:  33a5 9a2d 2edb ac11 488d e643 69f4 8821
	0x0130:  44af bd6a 5170 a94c 9ba1 795b 4f59 6387
	0x0140:  4cf3 1869 1376 9c25 e0e6 2b48 8316 483e
	0x0150:  7d9d 4df6 03e3 a98d a3c6 2f11 c353 662c
	0x0160:  51ba 0240 895c f605 cca6 13ce dac0 d338
	0x0170:  aa62 4d4a 1f01 bd1c 5b22 cfcd 46b3 6d47
	0x0180:  e100 2fe1 cb8a 33d1 88c0 c122 4dfc 273a
	0x0190:  e1d7 5b8f 43c8 57b0 1d31 90c6 aed1 cefc
	0x01a0:  88d3 9b5e 6660 38ef 9c7b 0fec 69c5 4d78
	0x01b0:  4527 d9d2 b2ba 0f7e 964e 5f34 e877 c732
	0x01c0:  3efa 40e0 93a1 a5fb 5b84 7243 4aac 4fe0
	0x01d0:  bbc7 46c6 1cd5 7450 fce7 673b 9066 d7c4
	0x01e0:  97ac 2950 bbba bbb7 0907 7d0f 0d77 30f9
	0x01f0:  250b aff5 861c e02f 9c7f e475 5414 c2c7
	0x0200:  7b4a 5800 c67a de2c d31f 04fe 893a 85c1
	0x0210:  8de7 6958 7e1f 9a3f c6d7 e03a d0cf e1bb
	0x0220:  7eb8 741b ff55 b59f 0dcb 9be3 e1c2 3ad0
	0x0230:  c6b1 9284 341b bcb0 3301 f9db 30d1 a7e1
	0x0240:  1a70 5645 e418 94f1 4d5a 2051 fb8d 389a
	0x0250:  4c9d 6b1c 8829 6674 d22b b8f2 bec6 cfb8
	0x0260:  76b6 d0e0 be5f 6902 4fdf 16ef c570 8f8b
	0x0270:  bd85 25a4 2abd 5aad e90c a9b9 d031 3188
	0x0280:  2303 de13 772d 1ac3 cbe5 a76b e5e6 da6f
	0x0290:  cd89 96e6 e98c ffea d7c7 be78 4503 4c70
	0x02a0:  172d 1a6e abfa a9cd b2ab f27c fb7b 25e5
	0x02b0:  df19 fc7f 6eda 9b44 3dda 0a77 97df 0c82
	0x02c0:  69da a53b 9a85 a9fd 4c13 b073 374c c5f7
	0x02d0:  0446 5106 27a9 a0f9 d87e eba4 9c3b 0bac
	0x02e0:  7e52 abd7 90f0 cb4c 4f96 5c10 783c 0480
	0x02f0:  35c4 dff8 dedf b643 d4d6 74a6 9834 8f64
	0x0300:  ff13 69a3 05fb 7822 97b7 cee0 dfbc 7922
	0x0310:  5c3c 83a4 205c 1be4 a91f bafd 7a51 d921
	0x0320:  1249 5aeb 5852 64f1 e6d3 ac8d e583 07de
	0x0330:  75d0 8104 0855 d008 0fa8 36a9 0bf6 752b
	0x0340:  09af 98a6 e499 340a 04ba f9e5 7b7c abab
	0x0350:  aeb1 6f9e e4fd 3c4a c773 e2ac c841 33fd
	0x0360:  4b29 fb06 d22b b39f ffaa 8a12 ccb2 10ab
	0x0370:  824f a5f9 d8e5 7deb 199f 1e91 335c e647
	0x0380:  500c 6362 3865 a2cd d217 cf58 6077 26af
	0x0390:  056e 340d a637 0a16 ecbb 56c3 a2a9 4b67
	0x03a0:  ff66 e166 f83b dc02 2a29 a043 786e 20fa
	0x03b0:  8488 440e 12a3 1fa9 983b caaf a8d3 1e51
	0x03c0:  5d00 de30 53e1 b884 dc7c d7dc 040d f8aa
	0x03d0:  43bd d961 bb54 70b8 b7d4 e947 f649 fbb5
	0x03e0:  847c 8538 346f 5e7d a4c7 7cb6 9602 ef1f
	0x03f0:  8431 c68e 0e77 a9eb 4713 7c37 fe66 fb93
	0x0400:  1e98 f1a9 d617 4ffc adfd 558a bb39 ee21
	0x0410:  8553 3bc1 b4a9 5ac2 2305 144c 586a c542
	0x0420:  4a6d da73 7a40 7ca8 f50d 4086 c8fb a397
	0x0430:  7f20 2470 c433 7ecc 13bc 2a88 9b32 f94c
	0x0440:  d4e2 0e20 35dd e797 bc93 8f1a 3605 1751
	0x0450:  d6a9 fa16 3965 4180 4a5e 3283 6aee 2122
	0x0460:  45c6 1fee 3ba5 cf39 07cd 0bcc 8cb2 8f50
	0x0470:  e0b6 cde4 38f2 7cf5 fde2 e9f3 75b3 b9fb
	0x0480:  22be 3186 8dc4 bc5c 10fd 4a0a 5166 19d7
	0x0490:  7e40 01bd 5124 dfcf 81ff 624a ce72 3754
	0x04a0:  ff3f 50b3 e8f4 7f83 868a 3ed9 0cd5 a25f
	0x04b0:  f44f 28ef 63ec 64ed 81ab ac6b 92bb 6afd
	0x04c0:  aa82 5015 3420 f5b5 e58e 94fb d80e b6e7
	0x04d0:  9caf 831a dad8 2ea5 7547 0577 8286 7da0
	0x04e0:  50fc 7fec da87 fae2 5d10 3343 d098 ef7e
	0x04f0:  67f4 1bec 8137 97ee 803a aea0 c466 6321
	0x0500:  93ad a6c5 dafb ee12 8b0d f6b3 7f32 a2f4
	0x0510:  30ca 92cc ce3b e075 6eaf 5765 691b 5e64
	0x0520:  8f29 3c28 0d75 0c2a d3d3 2e99 58b7 a0f7
	0x0530:  8aba 6ddc b9e9 a108 a7c8 a2e4 bb8a 51ba
	0x0540:  b02b ceb8 2018 460f 6917 01e0 ab0b ec0a
	0x0550:  dfc2 5b9a 3236 f021 1316 45ed fba3 d62f
	0x0560:  fcfd 488e 9e53 1ba5 9d36 471c 42c8 c1ea
	0x0570:  9512 e063 86f8 d92a 5595 1e2f 0d37 acb9
	0x0580:  0c
1716064566.437499 IP 192.168.29.114.55544 > 20.189.173.4.443: Flags [.], ack 4735, win 501, options [nop,nop,TS val 4029385449 ecr 2766829080], length 0
	0x0000:  0015 5df6 7ba8 0015 5dd5 7462 0800 4500
	0x0010:  0034 13e0 4000 4006 8708 c0a8 1d72 14bd
	0x0020:  ad04 d8f8 01bb 443d 8c3e 4ef1 3e2c 8010
	0x0030:  01f5 a002 0000 0101 080a f02b 8ae9 a4ea
	0x0040:  7618
1716064566.759680 IP 192.168.29.114.55544 > 20.189.173.4.443: Flags [P.], seq 2384:2408, ack 5201, win 501, options [nop,nop,TS val 4029385771 ecr 2766829255], length 24
	0x0000:  0015 5df6 7ba8 0015 5dd5 7462 0800 4500
	0x0010:  004c 13e1 4000 4006 86ef c0a8 1d72 14bd
	0x0020:  ad04 d8f8 01bb 443d 8c3e 4ef1 3ffe 8018
	0x0030:  01f5 a01a 0000 0101 080a f02b 8c2b a4ea
	0x0040:  76c7 1703 0300 136b e55e 8678 543b 6d41
	0x0050:  0974 3d43 3336 cb9a f149
1716064566.759767 IP 192.168.29.114.55544 > 20.189.173.4.443: Flags [F.], seq 2408, ack 5201, win 501, options [nop,nop,TS val 4029385771 ecr 2766829255], length 0
	0x0000:  0015 5df6 7ba8 0015 5dd5 7462 0800 4500
	0x0010:  0034 13e2 4000 4006 8706 c0a8 1d72 14bd
	0x0020:  ad04 d8f8 01bb 443d 8c56 4ef1 3ffe 8011
	0x0030:  01f5 a002 0000 0101 080a f02b 8c2b a4ea
	0x0040:  76c7
